:020000000328D3
:10000600923083120313A2008830A3008E30A4001E
:100016008630A500F730A600C630A700C030A8007D
:10002600A130A9008630AA00F730AB00AB30AC0097
:10003600C030AD008730AE0083168801F101F201B1
:1000460080307206F00080307002031D2C280D30BF
:100056007102031845287108223E840000088312A5
:1000660088000230FB000430FC00BA30FD00FD0BB6
:100076003A28FC0B3A28FB0B3A280000F10A031930
:06008600F20A23284528C0
:02400E004A2F37
:00000001FF
